:100000000C944B000C9400000C9400000C94000025
:100010000C9400000C9400000C9400000C94000060
:100020000C9400000C9400000C9400000C94000050
:100030000C9400000C9400000C9400000C94000040
:100040000C9400000C9400000C9400000C94000030
:100050000C9400000C9400000C9400000C94000020
:100060000C9400000C9400000C9400000C94000010
:100070000C9400000C9400000C9400000C94000000
:0C0080000C9400000C9400000C94000094
:10009600BFEFBDBFB0E1BEBFBFEFBABBBFEFB7BBDF
:1000A600B0E0B0936100B7EAB6B9B0E0B7B9B6B19F
:1000B600B064B6B906B10071003009F4FBCF04B1E3
:0A00C6000BBB05B108BBF3CFFFCF61
:0A008C0005900D920197E1F7089529
:00000001FF
